:1000000058C7000073C7000071C700000C94FE279A
:100010006DC700006BC7000069C7000067C700001C
:1000200065C7000063C700000C94CC240C94B42571
:100030000C94AB175BC7000059C7000057C70000FE
:1000400055C7000053C7000051C700004FC700004C
:100050004DC700000C94A82449C7000047C7000002
:1000600045C7000043C7000041C700003FC700006C
:100070003DC700003BC7000039C7000037C700007C
:1000800035C7000033C7000031C700002FC700008C
:100090002DC700002BC7000029C7000027C700009C
:1000A00025C7000023C7000021C70000002300006F
:1000B000232305010980A101850319012AB7001531
:1000C0000126B700950175108100C0050C0901A13A
:1000D00001850419012AA002150126A002950175C7
:1000E000108100C005010906A1018506050719E078
:1000F00029E71500250195087501810205071900FA
:1001000029EF1500250195F07501810205081901F7
:100110002905950575019102950175039101C005A9
:10012000010906A101050719E029E7150025019538
:1001300008750181029501750881010507190029DB
:10014000FF150026FF0095067508810005081901B6
:100150002905150025019505750191029501750385
:100160009101C009023B00020100A0FA090400004D
:1001700001030101000921110100012244000705CA
:1001800081030800010904010001030000000921A6
:1001900011010001226D00070582032000011201F8
:1001A00000020000000853460100010001020001A6
:1001B0000C0343006F0072006E0065000000100326
:1001C00066006F006F007300740061006E00000035
:1001D00004030904000101010101010101010202FE
:1001E00002020202020202030303030303030304E5
:1001F00004040404040405050505050606060606B0
:10020000070707070708080808090909090A0A0A69
:100210000B0B0B0C0C0C0D0D0D0E0E0E0F0F0F100B
:100220001011111112121313141415151616171795
:10023000181819191A1A1B1B1C1D1D1E1E1F202001
:10024000212222232424252626272829292A2B2C4B
:100250002D2D2E2F30313232333435363738393A6E
:100260003B3C3D3E3F404142434445464748494A66
:100270004C4D4E4F50515354555658595A5B5D5E34
:100280005F616264656668696B6C6D6F70727375CF
:1002900077787A7B7D7E8082838587888A8C8E8F33
:1002A00091939596989A9C9EA0A2A3A5A7A9ABAD61
:1002B000AFB1B3B5B7BABCBEC0C2C4C6C9CBCDCF4F
:1002C000D1D4D6D8DBDDDFE2E4E7E9EBEEF0F3F5FD
:1002D000F8FAFDFF00DA028180D9F1DB20A4A62E16
:1002E000AF00A0C0D30000A1C8D30000AED580A845
:1002F0001F408D1420000000000000000000B8B86E
:10030000B8B8B8B8B8B8B8B8B80000000000000075
:1003100000000000000000000000000000000000DD
:1003200000000000000000000000000000000000CD
:1003300000000000000000000000000000000000BD
:1003400000000000000000000000000000000000AD
:10035000000000000000000000000000000000009D
:10036000000000000000000000000000000000008D
:100370000000000000000000000000000000FFFF7F
:10038000FFFFFFFFFFFFFFFFFF0000000000000076
:10039000000000000000000000000000000000005D
:1003A000000000000000000000000000000000004D
:1003B000000000000000000000000000000000003D
:1003C000000000000000000000000000000000002D
:1003D000000000000000000000000000000000001D
:1003E000000000000000000000000000000000000D
:1003F00000000000000000000001070F1F3FFFFF8A
:10040000FFFFFFFFFFFFFFFFFF7F1F0F070300003E
:1004100000000000000000000000000000000000DC
:1004200000000000000000000000000000000000CC
:1004300000000000000000000000000000000000BC
:1004400000000000000000000000000000000000AC
:10045000000000000000000000000000000000009C
:10046000000000000000000000000000000000008C
:10047000000000000000000000000000000000017B
:1004800003070F1F1F0F0301000000000000000002
:10049000000000000000000000000000000000005C
:1004A000000000000000000000000000000000004C
:1004B000000000000000000000000000000000003C
:1004C000000000000000000000000000000000002C
:1004D000000000000000000000000000000000001C
:1004E000000000000000000000000000000000000C
:1004F00000000000000000000000000000000000FC
:1005000000000000000000000000000000000000EB
:1005100000000000000000000000000000000000DB
:1005200000000000000000000000000000000000CB
:1005300000000000000000000000000000000000BB
:1005400000000000000000000000000000000000AB
:1005500000000070F8FCEC78F0F0000000000000F3
:10056000000000000000000000000000000000008B
:10057000000000000000000000000000000000007B
:10058000000000000000000000000000000000006B
:10059000000000000000000000000000000000005B
:1005A000000000000000000000000000FCFC3C789F
:1005B000E08000000000FCFC0000000000000000E3
:1005C0000000FCFC00000000000000000000000033
:1005D00000000000F1FD00000F1F3870E0C0C08077
:1005E000000000000000000000000000000000000B
:1005F00000000000000000000000000000000000FB
:1006000000000000000000000000000000000000EA
:1006100000000000000000000000000000000000DA
:10062000000000000000000000000000FFFF0000CC
:1006300001071E78E0C0FFFF000080868686868660
:100640008686FFFF000000000000000000000000A0
:10065000000000000F1F70B8000000020FFFFFFF36
:10066000DFEE66223272B2F6FE3C3878088888F8EF
:10067000200000000000000000000000000000005A
:10068000000000000000000000000000000000006A
:10069000000000000000000000000000000000005A
:1006A0000000000000000000000000000101000048
:1006B0000000000001010101000001010101010130
:1006C0000101010100000000000000000000000026
:1006D00000000000000000010303030303030707F9
:1006E000070F08081E171715160E0E060606060435
:1006F00000000000000000000000000000000000FA
:1007000000000000000000000000000000000000E9
:1007100000000000000000000000000000000000D9
:1007200000000000000000000000000000000000C9
:100730000000008080808000000000000000800039
:1007400000000000000000000000000000000000A9
:100750000000000000000000000000000000000099
:100760000000000000000000000000000080800089
:100770000000000000000000000000000000000079
:100780000000000000000000000000000000000069
:100790000000F8000000C0800000F8F80000000031
:1007A00000F8F80000000000F09808080808181881
:1007B000000000FF030000000000E0F01808FF0840
:1007C00008181000000000980800000000E0301039
:1007D00030F222323232E2840C38E0000000008035
:1007E000808080F88080F098808000000000030FF7
:1007F000FCC000000000000000000000000000003D
:1008000000000000000000000000000000000000E8
:1008100000003F300C0300030E383F3F000030184B
:100820000603030E183000003021212123233E1E31
:10083000000000FF0000000000000061C3C3FFC211
:10084000467E1800000000FFE0000000003F6080CE
:10085000003F303030301F87C0701F000000101084
:1008600010F81F10F03F111010000000000080E091
:100870007F070000000000000000000000000000F2
:100880000000000000000000000000000000000068
:100890000000000000000000000000000000000058
:1008A0000000000000000000000000000000000048
:1008B000000000030302020000000000000003002B
:1008C0000000000000000003010000000000000024
:1008D0000101030203030101000000000000000009
:1008E0000100000001000000000000000002030100
:1008F00000000000000000000000000000000000F8
:1009000000000000000000000000000000000000E7
:1009100000000000000000000000000000000000D7
:1009200000000000000000000000000000000000C7
:1009300000000000000000000000000000000000B7
:1009400000000000000000000000000000000000A7
:100950000000000000000000000000000000000097
:100960000000000000000000000000000000000087
:100970000000000000000000000000000000000077
:100980000000000000000000000000000000000067
:10099000F8000000C0800000F8F8000000F03808FF
:1009A00008081830E0000000F83870C0000000F8B7
:1009B000F8000000000060FEFE60606060E0E000A3
:1009C0000070FC8E0602020606040000020606C63F
:1009D000E6761E0E06000000020202FEFE02020083
:1009E00000000000202020F03E20E07C22200000BB
:1009F00000000000000000000000000000000000F7
:100A000000000000000000000000000000000000E6
:100A10003F301C0701030E383F3F0000003F00003D
:100A2000000000003F0000003F000001071C303FB5
:100A30003F0000000000007FFF60301C0603000044
:100A400000007CE7C3C3C3C060000000003E7FC15C
:100A5000C0C0C0C060000000000000FF7F30300058
:100A6000000000040CCC3E0D0C7C0F0C0C000000B0
:100A70000000000000000000000000000000000076
:100A80000000000000000000000000000000000066
:100A90000000000000000000000000000000000056
:100AA0000000000000000000000000000000000046
:100AB0000000000000000000000000000000000036
:100AC0000000000000000000000000000000000026
:100AD0000000000000000000000000000000000016
:100AE0000000000000000000000000000000000006
:100AF00000000000000000000000000000000000F6
:100B000000000000000000000000000000000000E5
:100B100000000000C0C6C64646464EFCF8F0000085
:100B2000FEFE00000000FEFEFE000006061EFEF8AF
:100B3000000000FEFEFE00000CFEFE000000F8FCBF
:100B4000DC8E868686FEFEFE0000000000000000AF
:100B500000000000C0E07070F0F0F0C01CFEF67203
:100B60007EFEFEFEFC0000000000E0F0F0D0808081
:100B70000000000000000000000000000000000075
:100B80000000000000000000000000000000000065
:100B900000000000000307060C0406070300000025
:100BA000030707060606FFFFFF000006063E3F3F5D
:100BB000060000E7E7670000C0FFFF000000183EE6
:100BC0007F736161617F7F7F000000000000000093
:100BD000E0F8E0E1E7CF9E3871FFFFFFFE010F1E56
:100BE000303F3F1F0700000000001F1F180C8F8FB1
:100BF00087C018FC7000000000000000000000002A
:100C000000000000000000000000000000000000E4
:100C100000000000000000CCCCC4CCCCDCFCF8E030
:100C2000000CFCFC00000000FCFC000000000000C8
:100C3000FCFC0000F0F8FC0C06060CFCF8F0000CC4
:100C40000C0C0C0C1C3CF8F0E00000000060C0C074
:100C5000C3C787878183C3C0E0E0C0003CFEFEFCC1
:100C6000E0001E7FFFFE007EFFCE9EBC9043EDFFA6
:100C70007F010703000000000000000000000000EA
:100C80000000000000000000000000000000000064
:100C9000000000000000000307060C0C060703001C
:100CA00000000707060606060707060006060603F5
:100CB00007070000010307060C0C060703010000EC
:100CC0007060606030381F0F0700000000000103F3
:100CD000070001071F3F7F7F7F7F7F1F003F3F1F70
:100CE0000700000003030000070C0F0F07000101BD
:100CF00000000000000029001A000F001C00130073
:100D00000500E10006001500160017000A00E000CB
:100D100014000D00190007000E0000000000000084
:100D2000E34100212C41E2003400180012000900C8
:100D30001D00280004000C000800110010000043F2
:100D40003722362254000B001B0000000000000078
:100D5000004200222A000000000000000000000005
:100D6000000000001E001F002000210022000000E3
:100D7000540056005500570000000000000000001D
:100D8000E34100212C4100000000000000000000B1
:100D9000000000002700260025002400230000009A
:100DA0003722850000000000000000000000000065
:100DB000004200222A0000001E02360221023702F1
:100DC0001F022D0031002602000027022002000031
:100DD0005400560055005700350000000000000088
:100DE000E34100212C410000310230002D022F0090
:100DF000000033023300300267002F022202380263
:100E00003722850023022402350200000000000082
:100E1000004200222A003A003B003C003D003E0018
:100E20003F003900000000005200000000000100F7
:100E30000000500051004F000000000000000000C2
:100E4000E34100212C4145004400430042004100A1
:100E50004000010000004E0052004B000000000066
:100E600000004F005100500046000000000000004C
:100E7000004200222A00202020206162636465660F
:100E80006768696A6B6C6D6E6F707172737475767A
:100E90007778797A313233343536373839305245CC
:100EA00042545F2D3D5B5D5C233B27602C2E2F2041
:100EB000202011241FBECFEFDAE0DEBFCDBF12E04D
:100EC000A0E0B1E0E6E1F4E502C005900D92A23C9D
:100ED000B107D9F726E0A2ECB2E001C01D92AA3F0B
:100EE000B207E1F70E942D210C94BE2989C8292F51
:100EF00030E048E0911102C09C0140E0C90164E08B
:100F0000969587956A95E1F7009711F04C5F9C01E3
:100F1000C9019695879596958795009711F04E5F34
:100F20009C01C90196958795840F08959093B20608
:100F30008093B10608959093B4068093B306089504
:100F400021E030E002C0220F331F8A95E2F7809142
:100F5000B3069091B406822B932BEDCF21E030E0C5
:100F600002C0220F331F8A95E2F7209530958091B9
:100F7000B3069091B40682239323DDCF983090F589
:100F8000863080F5E82FF0E086E0989FE00DF11DB7
:100F900011248E2F877041E001C0440F8A95EAF733
:100FA00083E0F695E7958A95E1F7EE0FFF1FEE0FC8
:100FB000FF1FE957F94F20E030E070E05191DF0169
:100FC000CB01022E02C0969587950A94E2F78170B4
:100FD00081958527842385278E932F5F3F4F24306B
:100FE000310561F70895983078F5863068F5E82F77
:100FF000F0E086E0989FE00DF11D11249E2F977080
:1010000083E0F695E7958A95E1F7EE0FFF1FEE0F67
:10101000FF1FE957F94F40E050E080E0219130E0B8
:10102000092E02C0369527950A94E2F721703327DE
:10103000042E01C0220F0A94EAF7822B4F5F5F4F04
:101040004430510559F7089580E008958091BA061B
:101050009091B906981301C008958F5F8770FACFF9
:101060009091B506809589238093B506282F277027
:1010700021110CC0891751F09091B70692FF06C05C
:101080008695869586956ADF1092B50608958091BB
:10109000AE069091B806892B5091AF06511591F08C
:1010A00090916901913021F49091B60697FD0BC0A3
:1010B00096E026EC32E040E0915048F44111109265
:1010C000AF06852B08959EE12EEC32E0F4CFF901B6
:1010D00061919F01611581F34F5FEECF982F90953D
:1010E0008091AE0689238093AE0608957830B8F4D7
:1010F0006630A8F48430B0F4E62FF0E096E0799FF3
:10110000E00DF11D112490E3899FE00DF11D1124E4
:10111000EE0FFF1FEA50F34F85919491089580E000
:1011200090E0089581E0FCCF9C01803E910509F498
:1011300048C0D8F48133910509F47DC048F4893260
:10114000910509F46DC08A9709F47CC0C90108951E
:101150008933910551F18238910539F1C597B1F77D
:101160008091B60685FFF2CF29C0843E910509F42F
:1011700047C048F4823E910599F1833E9105A9F15B
:1011800021EE30E0E3CF863E910509F444C0873E6E
:101190009105E1F68091B60683FD61C09091B70696
:1011A00091FF2BC024EE30E0D1CF8091B606837042
:1011B000811152C08091B70683FFC8CF29E230E089
:1011C000C5CF8091B60680FD33C09091B70690FFE1
:1011D000BDCF23EE30E084FFB9CF20E030E0B6CFC2
:1011E0008091B60682FDF5CFB1CF8091B60682FD23
:1011F00030C09091B70690FD2FC084FFA7CFEDCFF0
:101200008091B70681FFA2CF8091B60627EE30E02D
:1012100084FDE3CF9BCF8091B60683FDF7CF96CFB9
:101220008091B60685FD1EC08091B70683FF8ECFE4
:1012300029E330E08BCF8091B60686FF87CF2AE284
:1012400030E084CF8091B60686FF80CF21E330E086
:101250007DCF22EE30E07ACF20EE30E077CF26EE61
:1012600030E074CF25E330E071CF9091B60692FF65
:1012700010C041E0282F2471243009F040E031E013
:10128000282F2871283009F030E0431711F02CE0A6
:10129000822793FF10C041E0282F2471243109F0E8
:1012A00040E031E0282F2871283109F030E0431761
:1012B00011F02CE082273091B70630FF10C051E0CA
:1012C000282F2171213009F050E041E0282F2871AA
:1012D000283009F040E0541711F029E0822731FF4F
:1012E00010C041E0282F2171213109F040E031E0A8
:1012F000282F2871283109F030E0431711F029E038
:10130000822794FD877E08951F93CF93DF930CDF90
:10131000EC01811522E5920708F052C0811540E5E5
:10132000940708F0CDC0803E910520F58D3C9105D5
:1013300008F0A1C0883A910570F4853A910508F04B
:1013400097C081309105B9F10497813A910598F1E0
:10135000C0E0D0E030C0885A91094B97C8F7C85A0E
:10136000D0E0CC0FDD1FCA5ADD4F0990D881C02DC7
:10137000D46421C0811550E49507B0F4C11580E212
:10138000D80708F0B3C0C83ED105A8F0CE019A95A1
:1013900081159F41E8F68D2F68DF182FCE01992720
:1013A000C3DEEC01D12B07C09927BEDECC27DF704E
:1013B000C82BD92BD06ACE01DF91CF911F91089510
:1013C000803842E59407C8F5803652E5950708F065
:1013D0005BC0C03482E5D807D0F4C03292E5D907AB
:1013E00008F04BC08C2F8695869520E2829FC00125
:1013F0001124C37021E030E0A90102C0440F551F41
:10140000CA95E2F7EA01C82BD92BDD68D4CF8C2F1F
:1014100086958695877050E2859FC0011124C37020
:1014200021E030E0A90102C0440F551FCA95E2F740
:10143000EA01C82BD92BDC68BECF803C52E595076A
:1014400058F48F71C03AD245A0F590E0982F8827C4
:10145000EC01C46FD06AAFCF805C9245809708F0F2
:1014600077CFDC2FCC27CC27DF71C06FD06AA3CF1A
:10147000A497D064A0CFD0659ECFCF71D0E0DC2FF1
:10148000CC27C16FD06A97CF86958695877020E26A
:10149000829FC0011124C37021E030E0A90102C085
:1014A000440F551FCA95E2F7EA01C82BD92BDA6819
:1014B00082CFDBDEC82FD0E0DC2FCC27D0627BCF01
:1014C0008F71D3DE93E0CC0FDD1F9A95E1F7CC2727
:1014D000DF70282F30E084FF05C050E1859F900128
:1014E00011243327C22BD32BD06965CF8D2F8F7159
:1014F000BCDE182FCE01992717DEEC01D12BDECFF1
:10150000A0E0B0E0E6E8FAE00C942A298C01E09033
:10151000B306F090B4068091B1069091B206E82A25
:10152000F92ACFE0D0E0CC24C394D12CC6010C2EF4
:1015300002C0880F991F0A94E2F78E219F21892B00
:1015400049F4219798F7B12C8B2DCDB7DEB7E9E0A0
:101550000C944629BC2EB8018C2FC8DDD5DE01972E
:1015600081F3F2CF0F931F93CF93FC01858100810C
:101570001181811579F0611569F0C801C1DFC82FAB
:10158000682FC801FBDCB8018C2FB0DDCF911F9113
:101590000F910895C80127DDC82FF5CFCF93DF93B2
:1015A000D82FC92FADDF6D2F7C2FA0DDADDEDF91F1
:1015B000CF910895FC018481811599F080819181FA
:1015C000EDDF282F92959F70963099F060F4925F2E
:1015D0009F70923030F4203FB1F038F481E0283E23
:1015E00038F080E008959A5FF3CF81E0243FC9F797
:1015F000089591E0213F09F090E081E0283E08F055
:1016000080E0892B089581E0089580E00895F894A2
:10161000E82FE295EF70F0E041A18F7021E030E01B
:10162000B90102C0660F771F8A95E2F7CB01962FAA
:101630009095942391A392A1892B82A378940895E5
:10164000FF920F931F93CF93DF93182F062FF42E43
:10165000C0E0D0E0CE0120915606211103C0CB316D
:1016600008F04B972F2D402F612F69D02196C6335C
:10167000D10581F7CDB7DEB7E5E00C944A299BE0B0
:10168000899F802D1124980F973308F096E32091BD
:101690005606211104C08B3128F48BE108959C314A
:1016A00008F09BE10895E5EAF6E0808191E0892762
:1016B000808310926C018091AD0681608093AD06AD
:1016C00008958091A5068370811551F08460809300
:1016D000A50610926C018091AD0681608093AD06E5
:1016E00008958091A5068370811551F084608093E0
:1016F000A50610926C018091AD0681608093AD06C5
:101700000895E5EAF6E0248130E1230F08F42FEF95
:1017100024838091AD0681608093AD060895E5EA4B
:10172000F6E0248130E1231B08F420E0248380913B
:10173000AD0681608093AD060895539A0895FC012B
:10174000EE0FFF1FE80FF91FEB5EFC4F6183408334
:101750002283089580915506811103C0809114035E
:101760000895E0917D06F0917E06309739F0019062
:10177000F081E02D309711F00995089580E00895EB
:10178000A3E0B0E0E6ECFBE00C9431299C018091F1
:1017900012039091130382179307B1F03093130350
:1017A00020931203E0917D06F0917E06309761F060
:1017B0000084F185E02D309739F083E089833B8305
:1017C0002A83CE01019609952396E2E00C944D29D7
:1017D000A3E0B0E0EEEEFBE00C9431299C01809197
:1017E00010039091110382179307B1F03093110306
:1017F00020931003E0917D06F0917E06309761F012
:101800000084F185E02D309739F084E089833B83B3
:101810002A83CE01019609952396E2E00C944D2986
:1018200090916901913091F0A6ECB2E0EFEF90E079
:101830002D91821751F0EF3F19F4211101C0E92FCA
:101840009F5F9630A9F7EF3FC9F408959091B606CF
:1018500097FFEACFE82FE695E695E695803FA8F753
:10186000F0E0E453FD4F877021E030E001C0220F2B
:101870008A95EAF78281822B828308950E2E000CCE
:10188000FF0BEC53FD4FF8CF90916901913021F49B
:101890009091B60697FD0CC0E6ECF2E091918913A9
:1018A00002C0DF011E9252E0EC3CF507B9F7089543
:1018B000E82FE695E695E695803FC8F7F0E0E4531B
:1018C000FD4F877021E030E0A90102C0440F551F91
:1018D0008A95E2F7CA0180959281892382830895CF
:1018E0008091680108952FB7F89460910C0370916E
:1018F0000D0380910E0390910F032FBF0895CF9297
:10190000DF92EF92FF9280915506811551F0EBDF47
:101910006B017C01C701B601FF90EF90DF90CF9083
:101920000895E1DFC0905706D0905806E090590620
:10193000F0905A06C60ED71EE81EF91EEBCF87E7B9
:1019400097E7909301088093000888E19AE00FB62A
:10195000F894A895809360000FBE90936000FFCF2D
:101960000895FC019B018091020390910303861767
:10197000970740F0672B29F48091E8008E778093D9
:10198000E800C90140E0009741F4411106C0809190
:10199000E80082FF2FC080E008952091CB0321153D
:1019A000A9F12530A9F12091E80023FD2DC0209157
:1019B000E80022FDECCF2091E80020FFE4CF309139
:1019C000F3002091F200009719F02830310558F00B
:1019D00041E02830310509F040E02091E8002E7701
:1019E0002093E800D0CF41914093F10001972F5F01
:1019F0003F4FE9CF8091CB03811541F0853041F015
:101A00008091E80083FFC3CF81E0089582E00895CC
:101A100083E008958091FC0287FF13C08091E80065
:101A200082FF06C08091E8008B778093E8000895DC
:101A30008091CB038111F2CF08958091CB03811562
:101A4000D9F38091E80080FFF8CF8091E8008E778D
:101A5000ECCF2091E4003091E50095E6A9012091BA
:101A6000EC00822F817020FF06C08091E80080FF8B
:101A700006C080E008952091E80022FD1AC0809100
:101A8000CB03811589F0853089F08091EB0085FDCD
:101A90000FC02091E4003091E50042175307F9F29E
:101AA0009A95E1F684E0089582E0089583E0089530
:101AB00081E00895E8EDF0E080818E7F80831092D0
:101AC000E2001092DA001092E100A0EEB0E08C91FA
:101AD00081608C9380818F77808319BCA7EDB0E003
:101AE0008C918E7F8C9380818F7E80831092FB02FD
:101AF0000895FC01AC014C5F5F4F8FEF61E3919162
:101B0000892728E030E0982F990F87FF09C0892F97
:101B1000862721503040B9F7E417F50781F708957B
:101B2000892FF7CF9091A5069370911571F080934E
:101B3000A6066093A706493708F048E74093A80631
:101B40008091AD0681608093AD060895E5EAF6E0E8
:101B5000818190E0438162810896E4CFE5EAF6E076
:101B60008181438162818850990BDCCFE5EAF6E000
:101B7000628120E1620F08F46FEF8181438190E080
:101B8000D1CFE5EAF6E0628120E1621B08F460E073
:101B90008181438190E0C6CFE5EAF6E0438120E110
:101BA000420F08F44FEF8181628190E0BBCFE5EAFC
:101BB000F6E0438120E1421B08F440E0818162812C
:101BC00090E0B0CFEF92FF920F931F93CF93DF93EC
:101BD000A091DD03B091DE039D0120503440BD0192
:101BE00060507240613042E0740710F060E072E0D3
:101BF0004091020650910306FC01EE24E394F12C7F
:101C00002617370748F05093030640930206CDB7D6
:101C1000DEB7E6E00C94492984919D918917A1F0E3
:101C20008D0101501109E8018883C901C5E096952D
:101C30008795CA95E1F7E70102C0CC0FDD1F8A95B1
:101C4000E2F7CE014C2B592B2F5F3F4F3196D8CF67
:101C5000982F9093E900891771F07091EC00209112
:101C6000ED005091F00021FD09C09F5F973089F78A
:101C70008093E9000895762F242F50E03091EB00F7
:101C80003E7F3093EB003091ED003D7F3093ED00CF
:101C90003091EB0031603093EB007093EC002093B7
:101CA000ED005093F0002091EE0027FDDECF089567
:101CB000A0E0B0E0EEE5FEE00C942B29C8EDD0E00A
:101CC00088818F7E8883E7EDF0E08081816080836A
:101CD00084E082BF81E08093FB0288818E7F8883CD
:101CE00002EE10E0F80110821092DA0081EEC82EA8
:101CF000D12CF601108288818F7788838881806853
:101D0000888388818F7D888319BC1092CB031092C1
:101D1000FA021092CA031092F90290EEE92EF12C09
:101D2000F70180818B7F808388818160888342E096
:101D300060E080E08DDFF60180818E7F8083F80196
:101D4000808181608083808188608083F7018081C9
:101D50008E7F8083888180618883CDB7DEB7E8E09D
:101D60000C944729E091BA069091B90627E0E9134F
:101D700002C080E00895AE2FB0E02E9FF001112444
:101D8000E554F94F3181361306C03081381303C052
:101D90003581341304C0FD013196E770E8CF81E04E
:101DA00008953BB1377F2BB128604FB7F89485E198
:101DB00093E0FC010196508168E02BB9000000C05F
:101DC00057FF3BB9550F000000C000C000C03BB931
:101DD00000C06A9591F753E0873B950751F74FBFD5
:101DE0008FE594E00197F1F700C0000008950F938C
:101DF0001F93CF93DF938B01EA019091CB03943033
:101E000051F58093E9008FEF9091E80095FD06C0B1
:101E100095ED9A95F1F700008A95B1F78091E80069
:101E200085FF19C016DE811111C08091E80085FD83
:101E300006C08091E8008E778093E800F3CFF80128
:101E400081918F018093F100219779F78091E800CB
:101E50008E778093E800DF91CF911F910F910895C5
:101E6000CF93DF93D82FC92F48E050E0682F792F08
:101E700081E0BDDF88E0ED2FFC2FA4E0B3E001900E
:101E80000D928A95E1F7DF91CF910895BC0140E270
:101E900050E082E0ACCFBC0143E050E082E0A7CF4D
:101EA000A0E0B0E0E6E5FFE00C942929182F092F07
:101EB000B62EA72E7A018091F6029AE0C92ED12C77
:101EC0008A3018F0CC24C394D12CC1E0D0E06B2D23
:101ED0007A2D812F902FF7010995811116C0219637
:101EE000CC16DD0694F0CC9FC001CD9F900D900DD7
:101EF000112420E030E045E34A95F1F700002F5F20
:101F00003F4F28173907B9F7E2CFCDB7DEB7EAE080
:101F10000C9445299091B70692FB222720F92817A7
:101F200071F080FB92F99093B7066091B6067091BC
:101F3000B70684E090E00E94BA2982E091C8089533
:101F400080916901813061F58091B60687FF28C0D4
:101F50009ED88093CD0240E250E06DE576E08CECB7
:101F600092E00E945E29892BD1F080E2ECECF2E055
:101F7000ADE5B6E001900D928A95E1F7E0917D061E
:101F8000F0917E06309759F00480F581E02D30976E
:101F900031F086E08093CC028CEC92E009950895B4
:101FA00076D88093C40248E050E06FE776E084EC96
:101FB00092E00E945E29892B91F388E0E4ECF2E044
:101FC000AFE7B6E001900D928A95E1F7E0917D06CA
:101FD000F0917E06309719F30280F381E02D30975F
:101FE000F1F284EC92E0DACFCF93C82F8115C1F0E3
:101FF0008CEF8C0F813A80F580916901813021F45A
:102000008091B60687FD0EC0E6ECF2E08191C8171C
:10201000F9F022E0EC3CF207C9F78C2F01DC90DFED
:10202000CF910895EC2FE695E695E695F0E0E45320
:10203000FD4F828190E04C2F477021E030E002C0DC
:10204000220F331F4A95E2F782239323892B29F32A
:102050008C2F1ADC75DFE1CF80E28C0F883068F4BA
:10206000C77081E090E001C0880FCA95EAF7C0917F
:10207000AE06C82BC093AE06D2CF8BE58C0F833053
:1020800030F42C2F2452330BC9017ADBC9CFC85A44
:10209000CB3130F6EC2FF0E0EE0FFF1FE457FD4F91
:1020A0008081918195DBBCCF811501F19CEF980F68
:1020B000913A10F4E9DB44CF90E2980F983048F45D
:1020C000877091E001C0990F8A95EAF7892F06D8A9
:1020D000F2CF9BE5980F933018F480E090E050CB5E
:1020E000885A8B3118F480E090E072CB08950F93FA
:1020F0001F93CF93C82F8B0177DF0115110531F4A2
:102100008C2FD2DFCF911F910F9108958FE99FE01F
:102110000197F1F700C0000001501109EECF8115C1
:1021200031F09091AE06892B8093AE0609CF0895C9
:10213000811519F00E946E0803CF08951092AE0623
:10214000809169018130A1F48091B60687FF10C0AB
:10215000EEECF2E08EE1DF011D928A95E9F780E076
:1021600090E00EDB80E090E033DB1092B806E8CE22
:10217000E6ECF2E086E0EFCFE1DF2FEF84E39CE0D6
:10218000215080409040E1F700C0000088E19AE0D3
:102190000FB6F894A895809360000FBE90936000EE
:1021A000FFCFAAE2B0E0E7EDF0E10C9430298CEF2C
:1021B00092E0FC0101962091F100208323E084301D
:1021C0009207B9F78091FD02893009F457C0C8F42D
:1021D000823009F4B1C0833009F481C0813081F1CB
:1021E0008091E80083FFE5C08091FC029091FD02A0
:1021F0009A3008F0DEC0E92FF0E0E054F64D0C9480
:1022000058298A3009F488C08B3051F78091FC023C
:10221000813231F78091000390910103892B01F7FE
:102220008091E800877F8093E800F4DB81E0909163
:10223000FE02911101C080E0809369017FDFD0CF61
:102240008091FC02813A61F68091E800877F80935B
:10225000E8008091000390910103892B59F060E020
:1022600080E090E070E07DDB8091E8008B778093E8
:10227000E800B6CF68E084E093E0F4CF8091FC0200
:10228000813209F0ADCF8091000390910103029754
:1022900008F0A6CF8091E800877F8093E8008091C6
:1022A000E80082FF17C09091F3008091F20002973E
:1022B00031F48091F100813011F0863021F4809169
:1022C000F100809368018091E8008B778093E800AB
:1022D000A1DB86CF8091CB038111E1CF81CF8091AB
:1022E000FC02813A09F07CCF8091000390910103B8
:1022F000892B09F075CF8091E800877F8093E800F3
:102300008091E80080FFFCCF809169018093F1000B
:102310008091E8008E77DACF8091FC02813209F05B
:102320005FCF8091E800877F8093E80073DB809126
:10233000FF028093670154CF8091FC02813A09F03B
:102340004FCF8091E800877F8093E8008091E8007C
:1023500080FFFCCF80916701D9CF803889F0823827
:1023600041F5809100038F70873018F58093E90064
:102370008091EB0085FB882780F91092E90006C068
:102380008091CA03880F9091F902892B9091E800FF
:10239000977F9093E8008093F1001092F100809174
:1023A000E8008E7723C0811116C08091FE02813033
:1023B00009F18091E80083FF0AC08091E800877FDF
:1023C0008093E8008091EB0080628093EB00AA96F6
:1023D000E3E00C944C29823061F78091FE02811574
:1023E00081F01092E9008091E800877F8093E800F7
:1023F00011DBDFCF81E0933009F080E08093CA03E6
:10240000F0CF809100038F702FEF280F263088F6D1
:102410008093E9002091EB0020FFE3CF933031F46B
:102420008091EB0080628093EB00DBCF9091EB001A
:1024300090619093EB0021E030E0A90102C0440FCD
:10244000551F8A95E2F74093EA001092EA008091C6
:10245000EB008860E8CF8111ACCF1091FE021F77AE
:102460008091E3008078812B8093E3008091E800E5
:10247000877F8093E800CEDA8091E80080FFFCCF70
:102480008091E30080688093E30083E0111101C034
:1024900082E08093CB038DCF8058823008F089CFC3
:1024A0002091FE023091FF022C3D53E0350791F55B
:1024B00083E08A838AE289834FB7F894DE0113961A
:1024C00020E03EE051E2E32FF0E05093570084918A
:1024D00020FF03C082958F703F5F8F708A30C0F0FD
:1024E000895C90E08D939D932F5F243161F74FBFFE
:1024F0008091E800877F8093E8006AE270E0CE0177
:1025000001962FDA8091E8008B778093E80051CF15
:10251000805DE7CF832F99278330910529F160F4FF
:102520008130910509F476C0029709F042CF8BE320
:1025300090E0E3E6F1E02DC020910003309101032B
:102540008132910509F45AC0829709F032CF2115E2
:10255000310509F469C02130310509F02ACF8DE633
:1025600090E0E2EBF0E015C0C90199272130B1F10C
:102570008230910509F43AC0892B09F01ACFE0EDB9
:10258000F1E0E4918E2F90E0E0EDF1E0009709F4A6
:1025900010CF2091E800277F2093E80020910203CC
:1025A000309103038217930708F49C0140E0211542
:1025B000310509F03EC041113CC08091E80082FD28
:1025C000A1CF8091CB03811509F49CCF853009F40C
:1025D00099CF8091E80083FFF0CF94CFEEEBF1E04C
:1025E000E4918E2F90E0EEEBF1E0D0CFE0EBF1E064
:1025F000E4918E2F90E0E0EBF1E0C8CF211531059A
:1026000071F02130310509F0D4CE89E090E0EEE898
:10261000F1E0BFCF82E190E0EEE9F1E0BACF89E0EE
:1026200090E0E5E7F1E0B5CF84E490E0EFE1F1E0A0
:10263000B0CF8091CB03811509F464CF853009F4C4
:1026400061CF8091E80083FD5DCF8091E80082FD3D
:10265000B4CF8091E80080FFAACF9091F3008091E1
:10266000F2002115310519F08830910550F041E054
:10267000089709F040E08091E8008E778093E800A9
:1026800096CF44914093F100319621503109019643
:10269000E8CF803809F08DCE8091E800877F809365
:1026A000E8008091FA028093F10079CE811181CE09
:1026B0001091FE02123008F07CCE8091E800877FF6
:1026C0008093E8001093FA02A5D9111599F084E0DF
:1026D0008093CB0342E061EC81E0BADA42E261EC44
:1026E00082E0B6DA8091CB03843051F482E08093AB
:1026F0006A015FCE8091E30087FDE9CF81E0E8CFFA
:1027000081E0F5CFA0E0B0E0E8E8F3E10C942B29FC
:10271000FA0169017801C82F880FDD0B3097B9F0F5
:10272000DE0193E0AA0FBB1F9A95E1F7A95EBE4FA9
:1027300011968D919C9112978B5C994F2C91422F01
:1027400050E0E217F10508F4AF010E946B29CE01B9
:102750000E949F28182F8115D9F0E114F104C1F0CF
:1027600083E0CC0FDD1F8A95E1F7FE01E95EFE4FA5
:102770008381482F50E0E816F10408F4A701C95EF0
:10278000DE4F6C817D816B5C794FC6010E946B29A5
:10279000812FCDB7DEB7E8E00C9447294F925F92C6
:1027A0006F927F92AF92BF92CF92DF92EF92FF92A1
:1027B0000F931F93CF93DF93F82EEB01A42ED22E0D
:1027C000E32EB02EC12E488059806A807B808BD842
:1027D00064197509860997096436710581059105A3
:1027E00010F4A11489F000E010E020E030E04B2D5F
:1027F0005C2D6D2D7E2D8F2D85DF811531F073D8E9
:10280000688379838A839B8381E0DF91CF911F91D5
:102810000F91FF90EF90DF90CF90BF90AF907F909F
:102820006F905F904F900895A0E0B0E0EAE1F4E18E
:102830000C942C29F82ED62EE72ED42FC52FB901B3
:10284000A8018D2F9C2F0E945E2941E0892B09F45D
:1028500040E02D2F3C2F6D2D7E2D8F2D9FDFCDB78E
:10286000DEB7E7E00C9448290F931F93AC0104E016
:1028700010E02AE336E069E276E082E0D5DF1F91DE
:102880000F910895A1E0B0E0E8E4F4E10C942F2961
:102890000E94AA0B898301E010E026E436E0AE0135
:1028A0004F5F5F4F69E176E086E0BEDF2196E4E0AE
:1028B0000C944B29A9E0B0E0E0E6F4E10C942F2958
:1028C00088E0E5EAF6E0DE01119601900D928A9526
:1028D000E1F7198609E010E02BE436E0AE014F5F26
:1028E0005F4F61E176E088E09FDF2996E4E00C9499
:1028F0004B290F931F9341E02091420630914306EC
:102900008091B3069091B4062817390709F440E086
:1029100002E010E023EB36E061E276E084E03EDFA7
:102920008115A9F041E0209144063091450680913F
:10293000B1069091B2062817390709F440E002E089
:1029400010E021EB36E06DE176E085E027DF1F91B6
:102950000F910895A1E0B0E0E0EBF4E10C942F2991
:1029600080910C0689832091540690E041E028175D
:10297000190609F440E001E010E09E012F5F3F4F8F
:102980006DE076E089E00ADF2196E4E00C944B29C3
:102990008F929F92AF92BF92DF92EF92FF920F932E
:1029A0001F93CF93DF9300D000D00F92CDB7DEB747
:1029B0007B0101E010E09E012B5F3F4F40E050E0C3
:1029C00060E070E080E09EDE182F811509F444C0BD
:1029D0008090310690903206A0903306B090340675
:1029E0000E94730CDD80681979098A099B09643695
:1029F00071058105910528F486E396E07AD88D1556
:102A000059F104E010E09E012F5F3F4F40E050E09D
:102A100060E070E081E076DE182F86E396E069D80A
:102A20008D1128C0111531F10E94730C609331068D
:102A300070933206809333069093340689819A818D
:102A4000AB81BC8180932D0690932E06A0932F0618
:102A5000B093300681E00FC0809136069091370622
:102A6000A0913806B091390689839A83AB83BC83E1
:102A70001111E4CF80E040912D0650912E06609117
:102A80002F0670913006F701408351836283738370
:102A90000F900F900F900F900F90DF91CF911F919B
:102AA0000F91FF90EF90DF90BF90AF909F908F902D
:102AB0000895A4E0B0E0EFE5F5E10C942B29C09077
:102AC0002506D0902606E0902706F09028060E9462
:102AD000730C6C197D098E099F0911E0643671052C
:102AE0008105910518F10E947F0CDC01CB01029653
:102AF000A11DB11D89839A83AB83BC8300E010E0E4
:102B000020E030E044E050E0BE016F5F7F4F83E0A3
:102B1000F9DD182F811551F00E94730C6093250682
:102B2000709326068093270690932806812F24967B
:102B3000E8E00C944729A4E0B0E0E1EAF5E10C9468
:102B40002B29C0901506D0901606E0901706F0903D
:102B500018060E94730C2091AE0629836C197D091A
:102B60008E099F09643671058105910508F041C001
:102B700081E090914706921301C080E09091B806E1
:102B80009A83811106C081E020914806291301C073
:102B900080E09091AF069B83811106C081E0209177
:102BA0004906291301C080E09091B0069C838111F1
:102BB00004C080914A068917B9F000E010E020E0D7
:102BC00030E044E050E0BE016F5F7F4F87E09ADD68
:102BD000811559F00E94730C6093150670931606C8
:102BE000809317069093180681E02496E8E00C94F1
:102BF000472981E0C3CF48E050E067E170E085EA13
:102C000096E00E9491291092AD060895E5EAF6E05B
:102C100085E0808380916D0190916E01A0916F019C
:102C200081839283A3838FE784838FEF8583E3CFB0
:102C3000A0E0B0E0EEE1F6E10C9428290E947F0CC0
:102C40006093B7037093B8038093B9039093BA036A
:102C50002091A506D22FD370D11519F0D22FD69579
:102C6000D69530916C01323009F40AC180F43111EB
:102C700016C0109200016093BB037093BC03809355
:102C8000BD039093BE0381E080936C0103C0333099
:102C900009F4FEC0CDB7DEB7EBE00C944429809177
:102CA0000401D8131EC023704091030150E081E05D
:102CB0002417150609F480E0809302018091AA068A
:102CC00090910101981739F08093010140E060E094
:102CD00080E00E94200BD11531F0D13071F080E0FE
:102CE00030C081E0E9CF809102018115C1F340E05D
:102CF00060E080E00E94200BF2CF809100010E94F2
:102D00003F0B982EA92EE090A606B090A706E09162
:102D1000A806F0E0EC52FE4FB11025C0E491CE2F92
:102D20001E2F0E2FE92CF12C90915606AE1411F0A7
:102D300008F088C081E0911509F49FC0ABE1AA16A4
:102D400070F6909100019F5F909300018111A2CFD6
:102D500082E080936C018091020181119BCFD1119F
:102D600099CF83E091CF0E2D10E0CB2CD12CE491A4
:102D7000CE2F26E0E29E700111242FEF30E0C70134
:102D8000B9010E940D29000F111F45E5469FC001A2
:102D9000479F900D1124081B190B402F440F400F23
:102DA000C9018C199D096C01EC9DC001ED9D900D30
:102DB0001124192FB49E60011124CD2CDD24D901DA
:102DC000AC19BD096D01EC9DD001ED9DB00D112434
:102DD0006901C41AD108A601B49E6001B59ED00C49
:102DE0001124CD2CDD242C193D09E29FA001E39F85
:102DF000500D1124052F63307105D1F02CEFE21630
:102E000023E0F20658F461307105B1F062307105CB
:102E100009F088CFC92F152F0E2F84CF643071058C
:102E200071F06630710509F47DCF092F1B2F7ACF21
:102E30000B2FC92F1E2F76CF0E2FCB2F73CFC52F61
:102E4000092FF8CFF701E45FFD4F80812091010148
:102E50008223811571F0F701911105C08BE1E8160D
:102E6000F1040CF07B97212F402F6C2FCF010E9493
:102E70009F0B9FEFE91AF90A57CFB6E3AB1660CF65
:102E8000D09304012370209303010E94D10E69CFD7
:102E90008091AD068111AFDEC090BB03D090BC0322
:102EA000E090BD03F090BE0380915506811579F046
:102EB0000E94730C6C197D098E099F0960317105A0
:102EC0008105910508F4E6CE10926C01E3CE0E94D4
:102ED0007F0CF0CFAB0124E630E0BC0188E70E9414
:102EE000D3269C0181E0232B09F080E00895809196
:102EF0000A06811561F080910C06811541F063E0AE
:102F000070E08FEA90E0E6DF811110920C060895E0
:102F100080910A068115F1F00E94730CDC01CB014F
:102F200088519C4FAF4FBF4F809304069093050686
:102F3000A0930606B093070680910C0681110AC083
:102F400063E070E08CEA90E0C5DF811519F081E064
:102F500080930C0608951F921FB61F9211248F9321
:102F60009F93AF93BF938091C903811113C0809148
:102F70000C0390910D03A0910E03B0910F034196A5
:102F8000A11DB11D80930C0390930D03A0930E031C
:102F9000B0930F03BF91AF919F918F911F901FBE70
:102FA0001F9018952FB7F89480910C0390910D0302
:102FB000A0910E03B0910F032FBF0895CF93DF931D
:102FC000EC01F0DF8C1B9D0BDF91CF910895EF9208
:102FD000FF920F931F93CF93DF93C62FD42F122FFF
:102FE000811599F06093A306DDDF9093F80280933A
:102FF000F702C77081E001C0880FCA95EAF78FD841
:10300000CDB7DEB7E6E00C9449298091A30668139A
:103010002FC0E090F702F090F802C4DF8E199F09EC
:10302000883C910528F500E20D0FCD1799F0C77087
:10303000FF24F3948F2D01C0880FCA95EAF778D842
:10304000083040F48D2F877001C0FF0C8A95EAF795
:103050008F2D65D860E070E0812F49D8083080F668
:10306000D77081E001C0880FDA95EAF761D8C8CF40
:10307000C77081E001C0880FCA95EAF7F7CFA0E0DA
:10308000B0E0E5E4F8E10C942B297C01FC0184819B
:10309000811509F46DC061E0C7010E94B20AEC011C
:1030A000F7018581811509F442C091819093A206B0
:1030B00090819093A10690E290936B01D093A0062B
:1030C000C0939F069E0130522115304228F5F7012A
:1030D0009681903130F0FE01FF27ED33F10508F4C1
:1030E0005DC01092A3069E0130572332310508F0CF
:1030F00048C184E090E00E948C299093B7068093A9
:10310000B606FE01E150F047E232F10508F07FC05B
:10311000E653F64D0C9458299E0130542115304148
:1031200060F5F7019681FE01FF279031A0F5CC32C2
:1031300021E4D207C9F5F7019681903108F05AC011
:10314000811509F467C160E070E08BE20E9477109E
:103150008091B5068770811559F0F7018581811539
:1031600039F08091B70682FF03C082E00E943008E8
:10317000CDB7DEB7E8E00C9447299E013A952115BA
:103180003F4108F4A8CF9E01205A32452032310534
:1031900008F4A7CFFE01ED33F10548F6EA58F14FE8
:1031A000E491E0936B01C3CFFE01E851FC47E730A7
:1031B000F10500F5E451F64D0C94582926E241EE54
:1031C00061EE05DFC5CF27E245EE65EEFACF26E2D8
:1031D00041EE60EEF6CF27E245EE64EEF2CF26E256
:1031E00041EE62EEEECF27E245EE66EEEACF28E250
:1031F00041E0EBCF811175CFC631FCE7DF0709F065
:1032000009C18091A4068111D2C089E2D1C0809108
:10321000B60681608093B6066091B6067091B706D7
:1032200084E090E00E94BA290E949E1091CF809184
:10323000B70688608093B706EFCF8091B6068260AC
:10324000E9CF8091B6068460E5CF8091B6068860AC
:10325000E1CF8091B7068160EDCF8091B7068260A3
:10326000E9CF8091B6068061D5CF8091B6068062A5
:10327000D1CF8091B6068064CDCF0E949E10809100
:10328000B6068068C7CF8091B6068C60C3CF8091A8
:10329000B7068360CFCF8091B6068E7FBBCF80917B
:1032A000B706877FC7CF8091B6068D7FB3CF809159
:1032B000B6068B7FAFCF8091B606877FABCF80916C
:1032C000B7068E7FB7CF8091B7068D7FB3CF809141
:1032D000B6068F7E9FCF8091B6068F7D9BCF809163
:1032E000B6068F7B97CF0E949E108091B6068F778F
:1032F00091CF8091B606837F8DCF8091B7068C7F6A
:1033000099CF8091B606992782FF939590FB82F919
:1033100090FB83F97FCF8091B706982F909590FB13
:1033200080F990FB81F986CF9091B606892F8F7B2B
:1033300096FF80646FCF0E949E109091B606892FF1
:1033400097FB87F9805866CF61E08EE090E00E949D
:10335000A02962CF60E0F9CF9091B606892F8F7EC9
:1033600094FF806157CF9091B606892F8E7F90FF92
:10337000816050CF9091B706892F877F93FF886037
:1033800059CF9091AE06C631FCE7DF07A1F49A7AD7
:1033900081E0911101C080E08093A40685E3911142
:1033A00001C089E20E94100C0E94A00FD1CE85E3DB
:1033B0000E94440CF9CF811569F19272FE01E0522E
:1033C000F847EB30F10508F06EC0ED50F64D0C9467
:1033D00058290E94530BBCCE911509F449C00E9494
:1033E000710BB6CE911509F449C00E94AE0DB0CE56
:1033F000911509F449C00E94C10DAACE911509F496
:1034000049C00E94D70DA4CE911509F449C00E946D
:103410008F0B9ECE9091AE069272FE01E054F8475B
:10342000ED30F10508F03FC0E250F64D0C945829FC
:103430008091A5068370811102C010926C01809169
:10344000A5068C7F81608093A5068091AD06816082
:103450008093AD067DCE8091A50683708111109278
:103460006C018091A5068C7FEECF911509F4B7CF42
:103470000E94610B6DCE911509F4B7CF0E94A60D85
:1034800067CE911509F4B7CF0E94B60D61CE9115A4
:1034900009F4B7CF0E94CC0D5BCE911509F4B7CFDC
:1034A0000E94810B55CE9E01205E324520323105AF
:1034B000A8F481112AC0CF7181E090E09C0102C084
:1034C000220F331FCA95E2F7E901622F83E090E0F3
:1034D0000E94A029CE010E9496073ACE8115A9F03C
:1034E000CA353CE7D30709F49AC008F072C0C1306E
:1034F0009CE7D90709F491C0C330ECE7DE0709F473
:1035000086C0C115DC4709F475C0F70185810081CB
:103510001181811509F487C0C8010E94800AC82F53
:10352000682FC8010E94BE07B8018C2F0E94760840
:103530000E948409D82FC92FF701C5800681029502
:103540000F708091B5068770811501F1DC2CC114D4
:10355000F1F0892F807F803461F080E28D0F883018
:10356000A8F0892F807E803221F4D23078F00115C6
:1035700069F08091B70682FF09C082E00E9430089E
:103580008091B5068770DD24D3948111D12C8C2FC6
:1035900082958F70883009F434C108F064C084309B
:1035A00008F046C01C2F1F70823008F46DC0C07F29
:1035B000C03211F01295107FD11509F49BC0D130A3
:1035C00009F4E4C0C11409F4EEC0011509F4B0C057
:1035D00070C0CB352CE7D20721F18091B7060024CB
:1035E00082FF0394802DCC35DC4709F08ECF0E94FA
:1035F0008A0F8BCF0E949E108FEF94E3ECE08150F6
:103600009040E040E1F700C000000E949F0C6FEF87
:103610007FEF80E090E00E94BA290E94BC1081E018
:10362000E6CF80E0E4CFC8010E94F307C82F7CCF2B
:10363000843009F4C9C0D11409F41AC18091B506C7
:1036400080FD16C1F70115828695869586950E94A4
:10365000A007C70114DD8091B506869586958695ED
:103660000E94AE0705C1893009F45AC18A5F8F7084
:10367000823008F7D23F09F064C18C2F8F71C110DE
:103680005DC10E94A007F2C0C03110F01295107FFA
:10369000C114B9F0111569F080E28D0F883010F077
:1036A000D11109C08091AE06812B8093AE060E9495
:1036B000A00F8D2F2FC08091B806812B8093B80664
:1036C000F6CF8D2F0E945410111509F4B4CF80E26B
:1036D0008D0F883010F0D11104C0812F0E946E0828
:1036E00006C010958091B80681238093B8060E9489
:1036F000A00FA1CF8091B70682FD16C0C11469F05A
:10370000111539F08091AE06812B8093AE060E9490
:10371000A00F80E00E94F40F8ECF80E00E94541032
:10372000111509F488CFD9CFC114A1F0011104C03B
:10373000812F0E948F107FCF013009F07CCF8091C4
:10374000AF06912F9823191709F475CF812B809319
:10375000AF0671CF01116FCF812F0E949810909109
:10376000AF06812F8923811529F0812F8095892328
:103770008093AF068091B006912F9823911509F49C
:103780005ACF109518231093B00655CFC11421F0CD
:10379000063008F050CFCCCF053008F04CCF812F49
:1037A0000E94981048CF0115D1F3D93349F4FFEFA7
:1037B00027EE33E0F15020403040E1F700C0000038
:1037C0008D2F0E94541037CF8C2F8695869583704D
:1037D000811569F0813009F02ECF8D2F9C2F9370C9
:1037E000C11002C080E090E00E94E80B24CF8D2F32
:1037F0009C2F9370C11002C080E090E00E94C00B2B
:103800001ACF8C2F8370811146C0C1102FC04D2F4D
:10381000429546954770440F440F2D2F2F7030E08E
:10382000042E02C0220F331F0A94E2F780E090E0DA
:10383000D4FF09C08FE090E002C0880F991F4A951D
:10384000E2F780959095C695C695C370C230D1F0C9
:10385000C330A9F04091B1065091B206C13069F071
:10386000822B932B842395230E9496070E94AA0BF8
:1038700060E0C7010E94B20A7BCC242B352B822B3F
:10388000932BF2CF822B932B2091B1063091B2066D
:1038900082279327E9CFC11491F1C0FFE7CF4D2FC5
:1038A000429546954770440F440F2D2F2F7030E0FE
:1038B000042E02C0220F331F0A94E2F780E090E04A
:1038C000D4FF09C08FE090E002C0880F991F4A958D
:1038D000E2F780959095C695C695C370C230B9F051
:1038E000C33091F04091B3065091B406C13051F00D
:1038F000822B932B842395230E949B07B7CF823082
:1039000070F6B4CF242B352B822B932BF5CF822B43
:10391000932B2091B3063091B40682279327ECCFE6
:10392000CF70C11439F08C2F0E94A0078D2F0E94F8
:103930008F109CCF8D2F0E9498108C2F0E94AE0765
:1039400095CF70F4D03FC9F0D13F91F0C11409F484
:1039500055C0011509F44FC08D2F0E94F40F86CF7A
:10396000D33F19F1D43F91F79091B70692FD2BC048
:103970008C2F8F71C11411F384CEC114A1F00530C6
:1039800008F074CFCF7181E090E0FC0102C0EE0F2F
:10399000FF1FCA95E2F7EF018091B3069091B4063C
:1039A0008E279D27A9CF0630EBCF80E090E0C11491
:1039B00009F4A2CFCF7181E090E002C0880F991F77
:1039C000CA95E2F799CFC11461F08C2F8F7192FFE5
:1039D00058CE982F990F990F990F93609093B50631
:1039E00050CE81E00E943008023008F43FCF82E0E0
:1039F0000E9430083BCF8C2F8F7143CE011579F098
:103A0000D93349F4FFEF27EE33E0F1502040304046
:103A1000E1F700C000008D2F0E94541027CF8C2F9B
:103A20008F718CCF8091F906803178F48091F806FF
:103A3000811559F0E091BA062091B9063091F4064B
:103A40004091F30657E02E1301C008956E2F70E0E9
:103A50005E9FF0011124DF01A554B94F14968C919B
:103A60001497811551F111968C911197831325C0EC
:103A70008C91841322C015968C91159781111DC0CD
:103A800012968D919C91A091F506B091F6068A1B35
:103A90009B0B883C910588F48091F9068F708061BA
:103AA0008093F906EF53F94F80818F708061808396
:103AB00083EF96E0E4DA0C942608FB013196E77078
:103AC000C2CFADE0B0E0E7E6FDE10C9426298C0121
:103AD00086E0F801DE01189601900D928A95E1F7D3
:103AE000F801F580C48083EF882E86E0982E7090D0
:103AF000F70671101FC0C114D1F0F11409F415C1FB
:103B0000C8010E94DA0A811509F40FC187E0F801A3
:103B1000D40101900D928A95E1F7F1E0CF1206C031
:103B20008091F3069091F4060E94CE0A7BDFFF2479
:103B3000F39453C0E080A280B380D090F8068091C7
:103B4000F5069091F6069501281B390BD11409F45E
:103B5000B5C0283C310508F08DC0C11441F39091E7
:103B6000F406C1808091F906803108F056C0C91270
:103B700013C09091F3069E110FC0F11048C08F70D2
:103B800080618093F90683EF96E079DA8091F906F7
:103B9000F8018683F12C21C0F11039C040E06C2D72
:103BA0008E2D0E94B20E40E06C2D8E2D0E94B20E22
:103BB000F82E8111EFCF888599850E94CE0A292F92
:103BC00022952F70903470F49F70223098F09115E8
:103BD000A9F0F8019681903188F48F2D2D96EDE0B3
:103BE0000C9442292A5F2F70223060F0C80147DA16
:103BF000FD2CF3CF911511F0811579F3805E88309B
:103C000060F3F4CF803F48F3815F8330F9CF809138
:103C1000F90681608093F906BDCFC91207C0909163
:103C2000F3069E1103C0F11409F469C0C8010E9493
:103C3000DA0A811509F479C0F11409F476C080918B
:103C4000F906803270F02091F3063091F4063A8341
:103C50002983BC82AB827D821E828F83CE01019636
:103C60000EDA87E0F801A3EFB6E001900D928A9595
:103C7000E1F75CCF8091F906803148F483EF96E05C
:103C8000FED987E0F40111928A95E9F783CFC11438
:103C900009F44DCF2091F40691812913C7CF90915B
:103CA000F3069E11C3CFF110C1CF8683C801E7D9B7
:103CB00087E0F40111928A95E9F739CF283C310564
:103CC00000F7C11409F433CFF11479F19091F4069F
:103CD0008181981320C08091F3068E111CC08091C1
:103CE000F90680FD0FC0803168F08683807F803FB9
:103CF00039F08681982F907F905F8F70892B868313
:103D0000C801BDD987E0F801A3EFB6E001900D929C
:103D10008A95E1F70CCFC8010E94DA0A8111A1CF80
:103D20008091F90681608093F906C801A8D9FFCE79
:103D3000ABE1B0E0EEE9FEE10C942F294E8B5F8BF6
:103D4000688F798F8A8F192F9B8F91111092B806E7
:103D50001D8A86E0FE017696DE011F9601900D9287
:103D60008A95E1F70A8D011561F00B8B1C8B61E0E0
:103D7000CE010F960E94B20A61E0CE010F960E941A
:103D8000B20A0B8B1C8B87E0FE013F96DE01189672
:103D900001900D928A95E1F7CE01089692DE81118D
:103DA00028C02091B9063091BA0687E0FE01389606
:103DB000DE01119601900D928A95E1F78C858115AF
:103DC000C1F0822F90E00196877099273817190665
:103DD000D9F097E0929FD0011124A554B94FFE016C
:103DE000319601900D929A95E1F78093B9060E9461
:103DF000260817E08091BA069091B906891312C07F
:103E00006B96E4E00C944B290E949E101092B90628
:103E10001092BA0687E0E3EFF6E0DF011D928A9583
:103E2000E9F7E7CF189FC00111248554994F49DE67
:103E3000811531F38091BA0690E001968770992739
:103E40008093BA06D7CFA6E0B0E0E9E2FFE10C9498
:103E50002F29A8D88C0180915B0690915C06801771
:103E6000910769F019821A829DD8BC0149815A8153
:103E700080E090E05DDF10935C0600935B06269681
:103E8000E4E00C944B29ACE0B0E0E9E4FFE10C94F1
:103E90002429FE01319688E0DF011D928A95E9F719
:103EA00082E4E82E82E0F82E8F013F01AA24A39439
:103EB000B12C2CE4822E22E0922EF70181917F0119
:103EC0008F3F09F43EC0F894E82FE295EF70F0E0E0
:103ED00021A18F70A50102C0440F551F8A95E2F7FA
:103EE000CA01922F982B91A392A18095892382A336
:103EF000789400C0E6E4F2E031E0512C21912F3FAC
:103F000079F0A22FA295AF70A05EB0E08C9190E006
:103F10002F7002C0959587952A95E2F780FFADC076
:103F200080E0582A330F8E169F0641F7F7018291E1
:103F30008F3F11F00E94070B50EA5A95F1F7D80114
:103F40005C920F5F1F4FB6E4EB16B2E0FB0609F080
:103F5000B4CF48E050E0B3018FEB93E00E945E29BC
:103F60006C01892B41F088E0F301AFEBB3E00190E5
:103F70000D928A95E1F70091C80310E004531C4F9D
:103F8000C114D10409F47BC081E08093F5020AD802
:103F90009093F4028093F30280915506811509F401
:103FA000C9C07E01E9E0EE0EF11C84E0D7011D924C
:103FB0008A95E9F78091F6028A3008F084C048ECCF
:103FC00054E1B701C8010E94500F811509F4A0C047
:103FD00044E354E1B701C8010E94500F811509F470
:103FE00097C049E555E1B701C8010E94500F8115FE
:103FF00009F48EC049E754E1B701C8010E94500F8F
:10400000811509F485C042E454E1B701C8010E945A
:10401000500F811509F47CC04BE955E1B701C80187
:104020000E94500F811509F473C04AE554E1B701AD
:10403000C8010E94500F811509F46AC04AEA54E190
:10404000B701C8010E94500F811509F461C0109298
:10405000F6028091C70390E044E050E0B70184533A
:104060009C4F0E945E2921E02093F202892B09F0E7
:1040700041C02C96EFE00C944029832F52CF8091C1
:10408000F502811509F488CFE090F302F090F40274
:104090000E94D2178E199F09059708F47DCF44E03E
:1040A00050E06FEB73E0C8010E945E29892B41F05C
:1040B00084E0EFEBF3E0D80101900D928A95E1F7EF
:1040C0001092F50269CFC090F002D090F1020E94E8
:1040D000D2178C199D09843F914008F070CF8091D0
:1040E000F202811531F284E0F70111928A95E9F725
:1040F0001092F202E091C703F0E0E453FC4F89858F
:104100009A85AB85BC8580839183A283B383B1CF2D
:104110008091F6028F3F39F40E94D2179093F102FA
:104120008093F002DCCF8F5F8093F6028A3008F430
:1041300090CFF2CFE090C703F12CA70144535C4F1E
:104140007A01F80180819181A281B3818093360642
:1041500090933706A0933806B093390686E396E02D
:104160000E94790D8093350680913A0690913B0626
:10417000A0913C06B0913D06F70180839183A28314
:10418000B383C0903E06D0903F06E0904006F0908A
:1041900041068091EC029091ED02A091EE02B09167
:1041A000EF02C816D906EA06FB06B1F0C092EC028F
:1041B000D092ED02E092EE02F092EF020E94730CB8
:1041C000C61AD70AE80AF90AC0925706D0925806CA
:1041D000E0925906F0925A06809142069091430669
:1041E0009093B4068093B30680914406909145065F
:1041F0009093B2068093B106809146068093140393
:10420000209148069091490680914A0630914706D0
:104210003093AE062093B8062091B70622FF05C062
:104220002091AF0692139093AF069091B006891338
:104230008093B00688E0EBE4F6E0A5EAB6E00190F2
:104240000D928A95E1F780915406811519F00E942C
:1042500088170FCF0E9477170CCFCDB7DEB72897FE
:104260000FB6F894DEBF0FBECDBF85B7806885BF9F
:1042700085B7806885BF84B7877F84BF0FB6F89401
:10428000A895809160008861809360001092600022
:104290000FBE80E890E00FB6F89480936100909391
:1042A00061000FBE81E080936A0185E09BE09093FE
:1042B000C3028093C2020E945A0D0E94580E809140
:1042C000E20084608093E20078948091CB038115B2
:1042D00099F08091E9001091EC008F7017951127EB
:1042E0001795182B1092E9008091E80083FD0E9439
:1042F000D1101F701093E90082E084BD93E095BD5A
:104300009AEF97BD80936E00109257061092580650
:104310001092590610925A068091D80080618093BD
:10432000D8002AE12A95F1F700C08091D900182F12
:10433000117080FD04C00E945A0D1092CB0310939F
:10434000550681E08127809356068093050111115F
:1043500011D6809105018091050191E08927880F90
:10436000880F8093C80394E0981B9093C70384E957
:104370000E94070B86E60E94070B87E90E94070B45
:1043800086EC0E94070B06E412E04CE4E42E42E0C7
:10439000F42ED8018D918D018F3F11F00E94070BF3
:1043A000E016F106B1F788E0ECECF3E0DF01282F2E
:1043B0001D922A95E9F7EFEBF3E0DF011D928A9554
:1043C000E9F780E090E0A8D7833E9E4F41F163EE8D
:1043D0007EEF80E090E0CED760E082E090E0B0D762
:1043E00081E090E09093B2068093B10661E083E0B3
:1043F00090E0A6D760E074E184E090E0BBD70E9433
:10440000061640E050E0BA018FE090E0ABD740E004
:1044100050E0BA0183E190E0A5D70E94FB1582E04D
:1044200090E072D78093D40384E090E075D79093A6
:10443000B7068093B60627DDEFEFF6E721E0E150FF
:10444000F0402040E1F700C000001DDDE09156067D
:1044500011E0E127EE0FEE0FF0E0E453FC4F808116
:1044600081FF07C06FEF7FEF80E090E083D70E946D
:104470009F0C83E090E048D790E00E9496070E944E
:104480009D0B1093AD0648E050E067E170E085EACF
:1044900096E02AD71092AD068091A506843010F4DC
:1044A0000E9406168091550691E08927880F809317
:1044B000000680E88093DF03F6D36BE070E08BEEBC
:1044C00092E00E946A17811509F43FC080910006AE
:1044D00065E070E081FD9DC086EE92E00E946A1763
:1044E000811599F16DE070E084ED92E00E946A1709
:1044F000811559F10E94730CDC01CB0188519C4F4E
:10450000AF4FBF4F8093040690930506A093060615
:10451000B0930706E0E0F4E080E092E0DF019C0168
:104520001D9221503040E1F7F093DE03E093DD036C
:104530008FEF9FEF909303068093020681E08093B4
:104540000A0680930C06109201068091550681118F
:1045500001C013D586E091E090937E0680937D069E
:104560008091CB03853049F48091CB03853009F4E9
:1045700053C00E949E100E94AA0B85DC05ED13E03B
:104580003CECE32E33E0F32ED701F80191918D91AD
:1045900023E0ED3DF20709F476C09817B9F3809057
:1045A0005506D12CD701CD907D01F80191908F0156
:1045B0009C1431F19C24B12CAA24A394892D8A2126
:1045C0008115B9F08114A9F0B982DA820E94D2175C
:1045D0009C838B83F1E0FD8391E08C2D8A218111F6
:1045E00001C090E09E8349815A816B817C818D81DD
:1045F0009FDBB394AA0C26E0B212E0CFF801C2927E
:10460000D39438E0D312CECF0E947F0CDD24D39414
:104610003EC081EE92E062CF8091CB03843041F1C5
:104620000E9418160E9477171092C90388E190E043
:10463000A0E40FB6F894A895809360000FBEA093F5
:10464000600083B7817F846083BF83B7816083BF4D
:104650007894889583B78E7F83BF0FB6F894A8951A
:1046600080916000886180936000109260000FBEAE
:104670000ADCECECF3E0819181114DC1B3E0E43D43
:10468000FB07C9F771CF98138ACFDDDBD12C0E94CD
:10469000181680910A06811509F44FC0009108068A
:1046A000109109060E94D217801B910BC29730F11E
:1046B0000E94D217909309068093080680E094E048
:1046C0009093DE038093DD038091B3069091B4064E
:1046D0000E947707823009F442C0833009F442C057
:1046E0008130D1F186EF9AE00E94E20D0E94AA0B80
:1046F00081FF04C086EF92E00E94E20D80910206E5
:1047000090910306892B89F580910C068115A9F0FB
:104710000E94730C00910406109105062091060674
:1047200030910706601B710B820B930B6F3F7F4F1D
:104730008F4F9F4710F40E947717D1100E9488175F
:104740000E94AA0B90910B06891709F409CF809358
:104750000B060E94730C04CF86EF98E0C5CF86EF5E
:1047600096E0C2CF86EF94E0BFCF80910A06811514
:1047700059F2809101068111C7CF0E9488172091BC
:104780000206309103062115310509F4BDCF10E072
:1047900041E050E0812F90E07A01012E02C0EE0C42
:1047A000FF1C0A94E2F7B70162237323672B11F40D
:1047B0001F5FF0CF2091000620FF9AC0912F990F24
:1047C000990F990F37E0390F80E023E090931201A1
:1047D00080931501309313012093160124E630E0F5
:1047E00047E050E060E171E088E793D2892B09F05F
:1047F0008BCF80E2189FA00111248091000680FFDA
:1048000083C0E0EEF3E080E2DF011D928A95E9F7D4
:10481000E0E5F2E0F887EF830CE412E084E5282E6F
:1048200082E0382E97E0992E88248394AF81B88552
:104830006D91B887AF83F80181918F01840F952F17
:10484000911D9C0120503C4F2901E62FF0E0E052E1
:10485000FC4F20E030E0692C621AC82C022E01C007
:10486000CC0C0A94EAF7520190E0D5018D915D01DC
:104870008C21662D691B677070E0B82F062E01C071
:10488000BB0F0A94EAF771956195710967707727F4
:1048900001C086956A95EAF78B2B6081682B60834F
:1048A0009F5F983011F72F5F3F4F319628303105C9
:1048B00091F6EF81F8852E163F0609F0B7CF04E692
:1048C00010E020E230E040EE53E060E488E7B1D24F
:1048D000892B09F019CFE094F09480910206909111
:1048E00003068E219F2190930306809302060CCF2E
:1048F0009695879596958795282F912F9295990F44
:1049000090763FE1390F62CF40505C4F04E610E0F3
:1049100020E230E0DACF8091CA03811509F424CE79
:10492000E0E1E9BDF2E1F9BD09B400FEFDCF8091FF
:10493000D8008F7D8093D8008091E00082608093C2
:10494000E0008091E00081FDFCCF0E949E100CCE23
:1049500078941F921FB61F9211248F939F93AF9349
:10496000BF9380910C0390910D03A0910E03B09121
:104970000F030196A11DB11D80930C0390930D03AD
:10498000A0930E03B0930F03BF91AF919F918F91AE
:104990001F901FBE1F9018951F920F920FB60F9277
:1049A00011242F933F934F935F936F937F938F9334
:1049B0009F93AF93BF93EF93FF938091E10082FFAA
:1049C00009C08091E20082FF05C08091E1008B7FE9
:1049D0008093E1008091DA0080FF24C08091D800AC
:1049E00080FF20C08091DA008E7F8093DA00809172
:1049F000D90080FFA9C080E189BD82E189BD09B4E9
:104A000000FEFDCF81E08093CB038091FB028111FA
:104A100009C00E945A0D0E94580E8091E2008460E5
:104A20008093E2008091E10080FF1AC08091E20053
:104A300080FF16C08091E2008E7F8093E20080911B
:104A4000E20080618093E2008091D80080628093D0
:104A5000D80019BC85E08093CB0383E080936A0182
:104A60008091E10084FF2FC08091E20084FF2BC081
:104A700080E189BD82E189BD09B400FEFDCF80914E
:104A8000D8008F7D8093D8008091E1008F7E809345
:104A9000E1008091E2008F7E8093E2008091E2004D
:104AA00081608093E2008091FA02811509F452C07E
:104AB00084E08093CB038091CB03843009F052C013
:104AC00082E080936A018091E10083FF2CC0809195
:104AD000E20083FF28C08091E100877F8093E1009E
:104AE00082E08093CB031092FA028091E1008E7FE6
:104AF0008093E1008091E2008E7F8093E2008091BC
:104B0000E20080618093E20042E060E080E00E9489
:104B1000280E8091F00088608093F00081E08093FF
:104B20006A0180936901FF91EF91BF91AF919F91CD
:104B30008F917F916F915F914F913F912F910F9046
:104B40000FBE0F901F90189519BC1092CB031092B6
:104B5000FB0268CF8091E30087FF02C083E0A9CF0A
:104B600081E0A7CF81E0ADCF1F920F920FB60F92D9
:104B70001124EF92FF920F931F932F933F934F9324
:104B80005F936F937F938F939F93AF93BF93CF93D5
:104B9000EF93FF9309EE10E0F8018081C091EC00E3
:104BA0008F70C795CC27C795C82B108280EFE82E51
:104BB000F12CF7018081877F808378940E94D11047
:104BC000F8011082F701808188608083CF70F8013E
:104BD000C083FF91EF91CF91BF91AF919F918F9142
:104BE0007F916F915F914F913F912F911F910F9105
:104BF000FF90EF900F900FBE0F901F901895FF92AF
:104C00000F931F93CF93DF93182FEB011092BC00EB
:104C100084EA8093BC000E94D217082FF92E80915D
:104C2000BC0087FF28C08091B900887F883029F0B8
:104C30008091B900887F803199F51093BB0084E89A
:104C40008093BC000E94D217182F092F8091BC00BE
:104C500087FF1EC02091B900287F80E090E02831B6
:104C600099F081E090E0203411F480E090E091959B
:104C70008195910909C0802F9F2D0E94DE17C817CA
:104C8000D90768F68EEF9FEFCDB7DEB7E5E002C338
:104C9000812F902F0E94DE17C817D907B8F6F2CFE0
:104CA0008FEF9FEFF1CF1092B9008CE08093B800A6
:104CB00008950F931F93CF93DF93EB018093BB0075
:104CC00084E88093BC000E94D217182F092F80918E
:104CD000BC0087FF11C02091B900287F81E090E0DF
:104CE000283211F480E090E0919581959109DF914F
:104CF000CF911F910F910895CF3FDC0741F3812F92
:104D0000902F0E94DE17C817D90708F78EEF9FEF84
:104D1000EECFA0E0B0E0EEE8F6E298C2782EB62E34
:104D2000A72E6A01E9010E94D2174C01C431D105B6
:104D300010F1CF3FDC0719F1CE0164E170E06DD2D4
:104D4000F62EE72E6F2D7E2D872D59DF8C01892BB6
:104D5000C9F4EB2CFA2CCE0CDF1CEC14FD0419F07A
:104D600001151105C9F084E98093BC00C801CDB7D5
:104D7000DEB7EDE087C2FF24F394E12CE3CF85E0BA
:104D8000F82EFBCFCF3FDC07E9F2C4010E94DE170B
:104D9000C817D907B8F6DDCFBE01F70181917F01B1
:104DA00088DF8C01DACFA0E0B0E0E8EDF6E24EC299
:104DB000782EB62EA72E6A0189010E94D2174C01C7
:104DC0000431110500F10F3F100701F1C80164E142
:104DD00070E023D2EB01BE01872D11DF7C01892B0E
:104DE000B9F4CB2DDA2DCC0EDD1ECC15DD0519F076
:104DF000E114F104B9F084E98093BC00C701CDB798
:104E0000DEB7EDE03FC2C1E0D0E0E5CFC5E0FCCFCA
:104E10000F3F100701F3C4010E94DE17081719079E
:104E2000D0F6DFCFFE018491B80143DF7C012196EB
:104E3000DCCFA0E0B0E0EEE1F7E207C2682E962EEC
:104E40005A01690178010E94D217782E892E043107
:104E5000110518F10F3F100719F1C80164E170E066
:104E6000DCD1162F072F612F702F862DC8DEEC01A5
:104E7000892BC1F0FFEFEF16FF06A9F3872D982DC0
:104E80000E94DE17E816F90670F784E98093BC00EB
:104E9000CE01CDB7DEB7EEE0F4C111E000E0E3CF24
:104EA00015E0FCCFB701892D04DFEC018501CA0CA8
:104EB000DB1C0C151D0549F3209739F7B701F801E4
:104EC00081918F01F6DEEC01F4CF8EE14A9B02C0A6
:104ED0008A95E1F74A9BFECF08955A9880E28A9519
:104EE000F1F75A9A0895FC013BE03A95F1F798E002
:104EF00020E080E031E040E14A95F1F7880F4A9BDD
:104F000002C08160232742E04A95F1F7000040E1AA
:104F10004A95F1F79A9579F790E19A95F1F799B159
:104F200032E03A95F1F7000040E14A95F1F792FB43
:104F3000992790F992272081920F90830895A1E0FC
:104F4000B0E0E4EAF7E289C119828C017C01E60E47
:104F5000F11CBBDFCE010196C6DFF80181938F0102
:104F6000EE15FF05B1F781E09981911180E021965E
:104F7000E6E08FC1529A5A9A089552985A9AEA9A3C
:104F8000E9E6F0E080818F7C808308956150770BA3
:104F900091E001C0990F6A95EAF7692F90E021E04E
:104FA000611108C0911599F05A9A80E28A95F1F73B
:104FB0005A980895362F3823311539F05A9A922786
:104FC00030E23A95F1F76695EBCF5A98F9CF5A98B7
:104FD000ECCFFF920F931F93CF93DF93EC018C01E3
:104FE000060F111DF99079DF68E08F2DCFDFC01714
:104FF000D107C1F7CDB7DEB7E5E04CC11F920F92E4
:105000000FB60F9211240F931F932F933F934F933B
:105010005F936F937F938F939F93AF93BF93EF9320
:10502000FF93CF93DF930F92CDB7DEB719824DDF99
:10503000CE01019658DF082F069506950695982F04
:1050400092959570202F2570920F292F2370969599
:105050009695920F982797708981892B811509F071
:1050600058C00B3008F055C080E18A95F1F75A9A84
:10507000529A82E08A95F1F700C05A9888E0089F1A
:1050800080011124D801A95EBE4F1696ED91FC91C6
:1050900017973097A9F060915402709155021496B9
:1050A0002D913C911597260F371F11968D919C914C
:1050B0001297680F791F13964C9113978C9109954D
:1050C000F801E95EFE4F6381611549F020915402B9
:1050D0003091550284819581820F931F7ADFFDDE26
:1050E00080E18A95F1F75A9852985A9A80E18A9508
:1050F000F1F7F801E95EFE4F6081611549F02091FA
:1051000054023091550281819281820F931F17DFE3
:10511000DCDE0F90DF91CF91FF91EF91BF91AF91C6
:105120009F918F917F916F915F914F913F912F91BF
:105130001F910F910F900FBE0F901F9018950F9316
:105140001F93CF93DF938C010B970CF05EC0F89404
:10515000529A5A9885E08A95F1F70000C02FC695BB
:10516000C570802F8570C80F8C2F8370C695C6952B
:1051700093E0000F111F9A95E1F7C80FC8018C2B1F
:10518000EC01ABDE00C068E08C2F00DF90E19A9567
:10519000F1F752985A9A4A9B31C087E090E04A99B9
:1051A0002FC0F801E95EFE4F6381611559F020912F
:1051B00054023091550284819581820F931FBFDE86
:1051C000811501F182DE80E28A95F1F75A98529AB0
:1051D00090E19A95F1F7F801E95EFE4F6081611563
:1051E00049F0209154023091550281819281820FC1
:1051F000931FEFDE72DE789481E008C000C0CBCF51
:10520000019749F4529A5A9A789480E0DF91CF91AD
:105210001F910F91089500C0C2CFAA1BBB1B51E183
:1052200007C0AA1FBB1FA617B70710F0A61BB70B16
:10523000881F991F5A95A9F780959095BC01CD01BB
:1052400008952F923F924F925F926F927F928F922A
:105250009F92AF92BF92CF92DF92EF92FF920F9305
:105260001F93CF93DF93CDB7DEB7CA1BDB0B0FB60F
:10527000F894DEBF0FBECDBF09942A8839884888CC
:105280005F846E847D848C849B84AA84B984C88462
:10529000DF80EE80FD800C811B81AA81B981CE0F59
:1052A000D11D0FB6F894DEBF0FBECDBFED0108953E
:1052B000EE0FFF1F0590F491E02D0994FB01DC0136
:1052C00004C08D910190801921F441505040C8F7DD
:1052D000881B990B0895FB01DC0102C001900D921F
:1052E00041505040D8F70895DC01CB01FC01F999F9
:1052F000FECF06C0F2BDE1BDF89A319600B40D9222
:1053000041505040B8F70895F999FECF92BD81BD44
:10531000F89A992780B50895A8E1B0E042E050E0FE
:10532000E5CFDC01A40FB51F4150504040F0CB0148
:10533000840F951F2E9105D041505040D8F7089505
:10534000262FF999FECF92BD81BDF89A019700B43E
:10535000021639F01FBA20BD0FB6F894FA9AF99ADE
:105360000FBE08950396272FECDFEADF252FE9DF34
:10537000242FE7CF0196272FE4DFE2CFF894FFCF69
:10538000AD11D311D911D311D9112B124C12D9113E
:10539000491356134B19B31953191D1921195719CC
:1053A00025195B1967193119AC1935196B19391998
:1053B0006F1994193D1973199B194319791981199A
:1053C00029195F192D19631947197D198B19A4190A
:1053D000AA1917194F19BA19E718EB18DE18E318AC
:1053E000EF18F318F718E919EC19351AF2193B1AE6
:1053F000F819411AFE19471A041A4D1A181A2B1ACD
:10540000E919EC19351AF2193B1AF819411AFE1963
:06541000471A041A4D1AB0
:1054160000FF00FFFF01700C300F460FB00C4B0F62
:105426000021007F220003000000010000000000B0
:105436000000040100000004050000000000000454
:1054460009000000000000020D000000000000023C
:105456000F00000000000001110000000000000421
:105466001200000000000009160000000000000104
:105476001F00000000000000000100200300FF786C
:10548600181712110A09191613100B081A15140FFA
:105496000C07FFFFFF0E0D0633322D2C2524343169
:1054A6002E2B262335302F2A2722FFFFFF292821DE
:1054B6005510320D10141026323055345F3F5527E3
:1054C60055155504440244134425503A3C373223BB
:1054D600320D3200210321142125102A101810073D
:1054E6000007001800298B10AE0DD014D026AE3060
:1054F6008B34813F8B278B158B049C029C139C2538
:10550600903AA437AE23AE0DAE00BF03BF14BF253D
:10551600D02AD018D007E007E018E02902020202DC
:105526000202010404040404040101040404040442
:10553600040404040101010202020202020104043D
:10554600040404040101040404040404040404011E
:105556000101946697C6F4F5F6F731330008101882
:10556600181008003506E200E900EA00B500B600AA
:10557600B700CD008301CC008A019201940121027B
:10558600230224022502260227022A02B300B400BF
:105596006F0070009F01CB019F02A002E200E900AC
:1055A600EA00B500B600B700CD008301CC008A0141
:1055B60092019401210223022402250226022702D7
:1055C6002A02B300B4006F0070009F01CB019F0256
:0255D600A00231
:00000001FF
